{
  "contractName": "Airline",
  "abi": [
    {
      "inputs": [],
      "stateMutability": "nonpayable",
      "type": "constructor"
    },
    {
      "anonymous": false,
      "inputs": [
        {
          "indexed": false,
          "internalType": "string",
          "name": "flight",
          "type": "string"
        },
        {
          "indexed": false,
          "internalType": "uint256",
          "name": "newPrice",
          "type": "uint256"
        }
      ],
      "name": "FlightPriceUpdated",
      "type": "event"
    },
    {
      "anonymous": false,
      "inputs": [
        {
          "indexed": true,
          "internalType": "address",
          "name": "customer",
          "type": "address"
        },
        {
          "indexed": false,
          "internalType": "uint256",
          "name": "price",
          "type": "uint256"
        },
        {
          "indexed": false,
          "internalType": "string",
          "name": "flight",
          "type": "string"
        }
      ],
      "name": "FlightPurchased",
      "type": "event"
    },
    {
      "inputs": [],
      "name": "count",
      "outputs": [
        {
          "internalType": "uint256",
          "name": "",
          "type": "uint256"
        }
      ],
      "stateMutability": "view",
      "type": "function",
      "constant": true
    },
    {
      "inputs": [
        {
          "internalType": "address",
          "name": "",
          "type": "address"
        },
        {
          "internalType": "uint256",
          "name": "",
          "type": "uint256"
        }
      ],
      "name": "customerFlights",
      "outputs": [
        {
          "internalType": "string",
          "name": "name",
          "type": "string"
        },
        {
          "internalType": "uint256",
          "name": "price",
          "type": "uint256"
        }
      ],
      "stateMutability": "view",
      "type": "function",
      "constant": true
    },
    {
      "inputs": [
        {
          "internalType": "address",
          "name": "",
          "type": "address"
        }
      ],
      "name": "customerTotalFlights",
      "outputs": [
        {
          "internalType": "uint256",
          "name": "",
          "type": "uint256"
        }
      ],
      "stateMutability": "view",
      "type": "function",
      "constant": true
    },
    {
      "inputs": [
        {
          "internalType": "address",
          "name": "",
          "type": "address"
        }
      ],
      "name": "customers",
      "outputs": [
        {
          "internalType": "uint256",
          "name": "loyaltyPoints",
          "type": "uint256"
        }
      ],
      "stateMutability": "view",
      "type": "function",
      "constant": true
    },
    {
      "inputs": [
        {
          "internalType": "uint256",
          "name": "",
          "type": "uint256"
        }
      ],
      "name": "flights",
      "outputs": [
        {
          "internalType": "string",
          "name": "name",
          "type": "string"
        },
        {
          "internalType": "uint256",
          "name": "price",
          "type": "uint256"
        }
      ],
      "stateMutability": "view",
      "type": "function",
      "constant": true
    },
    {
      "inputs": [
        {
          "internalType": "uint256",
          "name": "",
          "type": "uint256"
        }
      ],
      "name": "getAddress",
      "outputs": [
        {
          "internalType": "address",
          "name": "",
          "type": "address"
        }
      ],
      "stateMutability": "view",
      "type": "function",
      "constant": true
    },
    {
      "inputs": [],
      "name": "owner",
      "outputs": [
        {
          "internalType": "address",
          "name": "",
          "type": "address"
        }
      ],
      "stateMutability": "view",
      "type": "function",
      "constant": true
    },
    {
      "inputs": [
        {
          "internalType": "uint256",
          "name": "flightIndex",
          "type": "uint256"
        }
      ],
      "name": "buyFlight",
      "outputs": [],
      "stateMutability": "payable",
      "type": "function",
      "payable": true
    },
    {
      "inputs": [],
      "name": "totalFlights",
      "outputs": [
        {
          "internalType": "uint256",
          "name": "",
          "type": "uint256"
        }
      ],
      "stateMutability": "view",
      "type": "function",
      "constant": true
    },
    {
      "inputs": [],
      "name": "redeemLoyaltyPoints",
      "outputs": [],
      "stateMutability": "nonpayable",
      "type": "function"
    },
    {
      "inputs": [],
      "name": "getRefundableEther",
      "outputs": [
        {
          "internalType": "uint256",
          "name": "",
          "type": "uint256"
        }
      ],
      "stateMutability": "view",
      "type": "function",
      "constant": true
    },
    {
      "inputs": [],
      "name": "getAirlineBalance",
      "outputs": [
        {
          "internalType": "uint256",
          "name": "",
          "type": "uint256"
        }
      ],
      "stateMutability": "view",
      "type": "function",
      "constant": true
    },
    {
      "inputs": [],
      "name": "transferFundsToOwner",
      "outputs": [],
      "stateMutability": "nonpayable",
      "type": "function"
    },
    {
      "inputs": [
        {
          "internalType": "uint256",
          "name": "flightIndex",
          "type": "uint256"
        },
        {
          "internalType": "uint256",
          "name": "newPrice",
          "type": "uint256"
        }
      ],
      "name": "updateFlightPrice",
      "outputs": [],
      "stateMutability": "nonpayable",
      "type": "function"
    },
    {
      "inputs": [
        {
          "internalType": "string",
          "name": "name",
          "type": "string"
        },
        {
          "internalType": "uint256",
          "name": "price",
          "type": "uint256"
        }
      ],
      "name": "addFlight",
      "outputs": [],
      "stateMutability": "nonpayable",
      "type": "function"
    },
    {
      "inputs": [
        {
          "internalType": "uint256",
          "name": "flightIndex",
          "type": "uint256"
        }
      ],
      "name": "removeFlight",
      "outputs": [],
      "stateMutability": "nonpayable",
      "type": "function"
    },
    {
      "inputs": [
        {
          "internalType": "address",
          "name": "customerAddress",
          "type": "address"
        }
      ],
      "name": "deleteCustomerFlights",
      "outputs": [],
      "stateMutability": "nonpayable",
      "type": "function"
    },
    {
      "inputs": [
        {
          "internalType": "address",
          "name": "customerAddress",
          "type": "address"
        }
      ],
      "name": "deleteCustomerTotalFlights",
      "outputs": [],
      "stateMutability": "nonpayable",
      "type": "function"
    },
    {
      "inputs": [
        {
          "internalType": "uint256",
          "name": "amount",
          "type": "uint256"
        }
      ],
      "name": "transferMoney",
      "outputs": [],
      "stateMutability": "nonpayable",
      "type": "function"
    },
    {
      "inputs": [
        {
          "internalType": "uint256",
          "name": "amount",
          "type": "uint256"
        },
        {
          "internalType": "address",
          "name": "to",
          "type": "address"
        }
      ],
      "name": "transferTo",
      "outputs": [],
      "stateMutability": "nonpayable",
      "type": "function"
    }
  ],
  "bytecode": "0x60806040526706f05b59d3b200006002553480156200001d57600080fd5b50336000806101000a81548173ffffffffffffffffffffffffffffffffffffffff021916908373ffffffffffffffffffffffffffffffffffffffff160217905550600360405180604001604052806040518060400160405280600581526020017f546f6b696f0000000000000000000000000000000000000000000000000000008152508152602001673782dace9d90000081525090806001815401808255809150506001900390600052602060002090600202016000909190919091506000820151816000019081620000f29190620004c9565b50602082015181600101555050600360405180604001604052806040518060400160405280600781526020017f4765726d616e790000000000000000000000000000000000000000000000000081525081526020016729a2241af62c000081525090806001815401808255809150506001900390600052602060002090600202016000909190919091506000820151816000019081620001939190620004c9565b50602082015181600101555050600360405180604001604052806040518060400160405280600681526020017f4d6164726964000000000000000000000000000000000000000000000000000081525081526020016729a2241af62c000081525090806001815401808255809150506001900390600052602060002090600202016000909190919091506000820151816000019081620002349190620004c9565b506020820151816001015550506000600181905550620005b0565b600081519050919050565b7f4e487b7100000000000000000000000000000000000000000000000000000000600052604160045260246000fd5b7f4e487b7100000000000000000000000000000000000000000000000000000000600052602260045260246000fd5b60006002820490506001821680620002d157607f821691505b602082108103620002e757620002e662000289565b5b50919050565b60008190508160005260206000209050919050565b60006020601f8301049050919050565b600082821b905092915050565b600060088302620003517fffffffffffffffffffffffffffffffffffffffffffffffffffffffffffffffff8262000312565b6200035d868362000312565b95508019841693508086168417925050509392505050565b6000819050919050565b6000819050919050565b6000620003aa620003a46200039e8462000375565b6200037f565b62000375565b9050919050565b6000819050919050565b620003c68362000389565b620003de620003d582620003b1565b8484546200031f565b825550505050565b600090565b620003f5620003e6565b62000402818484620003bb565b505050565b5b818110156200042a576200041e600082620003eb565b60018101905062000408565b5050565b601f82111562000479576200044381620002ed565b6200044e8462000302565b810160208510156200045e578190505b620004766200046d8562000302565b83018262000407565b50505b505050565b600082821c905092915050565b60006200049e600019846008026200047e565b1980831691505092915050565b6000620004b983836200048b565b9150826002028217905092915050565b620004d4826200024f565b67ffffffffffffffff811115620004f057620004ef6200025a565b5b620004fc8254620002b8565b620005098282856200042e565b600060209050601f8311600181146200054157600084156200052c578287015190505b620005388582620004ab565b865550620005a8565b601f1984166200055186620002ed565b60005b828110156200057b5784890151825560018201915060208501945060208101905062000554565b868310156200059b578489015162000597601f8916826200048b565b8355505b6001600288020188555050505b505050505050565b611edb80620005c06000396000f3fe60806040526004361061011f5760003560e01c80638a472caf116100a0578063cbb08f5111610064578063cbb08f51146103da578063d4822fbf14610403578063ec8af07d1461042c578063f269365a14610443578063f997114f146104805761011f565b80638a472caf146102f75780638da5cb5b1461032057806395b99c1c1461034b578063a8969d1814610374578063b93f9b0a1461039d5761011f565b8063336989ae116100e7578063336989ae146101ff5780633b6de4171461023c57806346f56bf1146102655780634bf02e7a1461028e57806381959427146102b95761011f565b806306661abd146101245780630ca97e481461014f57806315ccf70f1461016b5780632411ff73146101a957806329cd30b4146101d4575b600080fd5b34801561013057600080fd5b50610139610497565b60405161014691906112ae565b60405180910390f35b61016960048036038101906101649190611309565b61049d565b005b34801561017757600080fd5b50610192600480360381019061018d9190611309565b6106d9565b6040516101a09291906113c6565b60405180910390f35b3480156101b557600080fd5b506101be610795565b6040516101cb91906112ae565b60405180910390f35b3480156101e057600080fd5b506101e96107ec565b6040516101f691906112ae565b60405180910390f35b34801561020b57600080fd5b5061022660048036038101906102219190611454565b61086a565b60405161023391906112ae565b60405180910390f35b34801561024857600080fd5b50610263600480360381019061025e91906115b6565b610888565b005b34801561027157600080fd5b5061028c60048036038101906102879190611454565b610946565b005b34801561029a57600080fd5b506102a36109ec565b6040516102b091906112ae565b60405180910390f35b3480156102c557600080fd5b506102e060048036038101906102db9190611612565b6109f9565b6040516102ee9291906113c6565b60405180910390f35b34801561030357600080fd5b5061031e60048036038101906103199190611309565b610ac2565b005b34801561032c57600080fd5b50610335610b91565b6040516103429190611661565b60405180910390f35b34801561035757600080fd5b50610372600480360381019061036d919061167c565b610bb5565b005b34801561038057600080fd5b5061039b60048036038101906103969190611309565b610cc4565b005b3480156103a957600080fd5b506103c460048036038101906103bf9190611309565b610e4e565b6040516103d19190611661565b60405180910390f35b3480156103e657600080fd5b5061040160048036038101906103fc9190611454565b610e81565b005b34801561040f57600080fd5b5061042a600480360381019061042591906116bc565b610f1f565b005b34801561043857600080fd5b50610441611008565b005b34801561044f57600080fd5b5061046a60048036038101906104659190611454565b611119565b60405161047791906112ae565b60405180910390f35b34801561048c57600080fd5b50610495611131565b005b60015481565b6000600382815481106104b3576104b26116fc565b5b90600052602060002090600202019050806001015434146104d357600080fd5b6000600560003373ffffffffffffffffffffffffffffffffffffffff1673ffffffffffffffffffffffffffffffffffffffff1681526020019081526020016000209050600581600001600082825461052b919061175a565b92505081905550600660003373ffffffffffffffffffffffffffffffffffffffff1673ffffffffffffffffffffffffffffffffffffffff168152602001908152602001600020829080600181540180825580915050600190039060005260206000209060020201600090919091909150600082018160000190816105af91906119b0565b50600182015481600101555050600760003373ffffffffffffffffffffffffffffffffffffffff1673ffffffffffffffffffffffffffffffffffffffff168152602001908152602001600020600081548092919061060c90611a98565b91905055503360046000600154815260200190815260200160002060006101000a81548173ffffffffffffffffffffffffffffffffffffffff021916908373ffffffffffffffffffffffffffffffffffffffff1602179055506001600081548092919061067890611a98565b91905055503373ffffffffffffffffffffffffffffffffffffffff167f1a02c9b180301ecb4108648e8e1cd231f2857cc169519367000f7380f57566c48360010154846000016040516106cc929190611b64565b60405180910390a2505050565b600381815481106106e957600080fd5b906000526020600020906002020160009150905080600001805461070c906117bd565b80601f0160208091040260200160405190810160405280929190818152602001828054610738906117bd565b80156107855780601f1061075a57610100808354040283529160200191610785565b820191906000526020600020905b81548152906001019060200180831161076857829003601f168201915b5050505050908060010154905082565b6000600560003373ffffffffffffffffffffffffffffffffffffffff1673ffffffffffffffffffffffffffffffffffffffff168152602001908152602001600020600001546002546107e79190611b94565b905090565b60008060009054906101000a900473ffffffffffffffffffffffffffffffffffffffff1673ffffffffffffffffffffffffffffffffffffffff163373ffffffffffffffffffffffffffffffffffffffff161461084757600080fd5b60003090508073ffffffffffffffffffffffffffffffffffffffff163191505090565b60056020528060005260406000206000915090508060000154905081565b60008054906101000a900473ffffffffffffffffffffffffffffffffffffffff1673ffffffffffffffffffffffffffffffffffffffff163373ffffffffffffffffffffffffffffffffffffffff16146108e057600080fd5b6003604051806040016040528084815260200183815250908060018154018082558091505060019003906000526020600020906002020160009091909190915060008201518160000190816109359190611bd6565b506020820151816001015550505050565b60008054906101000a900473ffffffffffffffffffffffffffffffffffffffff1673ffffffffffffffffffffffffffffffffffffffff163373ffffffffffffffffffffffffffffffffffffffff161461099e57600080fd5b600660008273ffffffffffffffffffffffffffffffffffffffff1673ffffffffffffffffffffffffffffffffffffffff16815260200190815260200160002060006109e991906111e5565b50565b6000600380549050905090565b60066020528160005260406000208181548110610a1557600080fd5b906000526020600020906002020160009150915050806000018054610a39906117bd565b80601f0160208091040260200160405190810160405280929190818152602001828054610a65906117bd565b8015610ab25780601f10610a8757610100808354040283529160200191610ab2565b820191906000526020600020905b815481529060010190602001808311610a9557829003601f168201915b5050505050908060010154905082565b60008054906101000a900473ffffffffffffffffffffffffffffffffffffffff1673ffffffffffffffffffffffffffffffffffffffff163373ffffffffffffffffffffffffffffffffffffffff1614610b1a57600080fd5b80471015610b2757600080fd5b60008054906101000a900473ffffffffffffffffffffffffffffffffffffffff1673ffffffffffffffffffffffffffffffffffffffff166108fc829081150290604051600060405180830381858888f19350505050158015610b8d573d6000803e3d6000fd5b5050565b60008054906101000a900473ffffffffffffffffffffffffffffffffffffffff1681565b60008054906101000a900473ffffffffffffffffffffffffffffffffffffffff1673ffffffffffffffffffffffffffffffffffffffff163373ffffffffffffffffffffffffffffffffffffffff1614610c0d57600080fd5b6003805490508210610c54576040517f08c379a0000000000000000000000000000000000000000000000000000000008152600401610c4b90611cf4565b60405180910390fd5b600060038381548110610c6a57610c696116fc565b5b906000526020600020906002020190508181600101819055507fd989891488ab1b6f8805c5a464900c399334775f5935bab9bc094997a03363f68160000183604051610cb7929190611d14565b60405180910390a1505050565b60008054906101000a900473ffffffffffffffffffffffffffffffffffffffff1673ffffffffffffffffffffffffffffffffffffffff163373ffffffffffffffffffffffffffffffffffffffff1614610d1c57600080fd5b6003805490508110610d63576040517f08c379a0000000000000000000000000000000000000000000000000000000008152600401610d5a90611d90565b60405180910390fd5b60008190505b6001600380549050610d7b9190611db0565b811015610e07576003600182610d91919061175a565b81548110610da257610da16116fc565b5b906000526020600020906002020160038281548110610dc457610dc36116fc565b5b906000526020600020906002020160008201816000019081610de691906119b0565b50600182015481600101559050508080610dff90611a98565b915050610d69565b506003805480610e1a57610e19611de4565b5b600190038181906000526020600020906002020160008082016000610e3f9190611209565b60018201600090555050905550565b60046020528060005260406000206000915054906101000a900473ffffffffffffffffffffffffffffffffffffffff1681565b60008054906101000a900473ffffffffffffffffffffffffffffffffffffffff1673ffffffffffffffffffffffffffffffffffffffff163373ffffffffffffffffffffffffffffffffffffffff1614610ed957600080fd5b600760008273ffffffffffffffffffffffffffffffffffffffff1673ffffffffffffffffffffffffffffffffffffffff1681526020019081526020016000206000905550565b60008054906101000a900473ffffffffffffffffffffffffffffffffffffffff1673ffffffffffffffffffffffffffffffffffffffff163373ffffffffffffffffffffffffffffffffffffffff1614610f7757600080fd5b81471015610f8457600080fd5b600073ffffffffffffffffffffffffffffffffffffffff168173ffffffffffffffffffffffffffffffffffffffff1603610fbd57600080fd5b8073ffffffffffffffffffffffffffffffffffffffff166108fc839081150290604051600060405180830381858888f19350505050158015611003573d6000803e3d6000fd5b505050565b60008054906101000a900473ffffffffffffffffffffffffffffffffffffffff1673ffffffffffffffffffffffffffffffffffffffff163373ffffffffffffffffffffffffffffffffffffffff161461106057600080fd5b60008060009054906101000a900473ffffffffffffffffffffffffffffffffffffffff1690506000479050600081116110ce576040517f08c379a00000000000000000000000000000000000000000000000000000000081526004016110c590611e85565b60405180910390fd5b8173ffffffffffffffffffffffffffffffffffffffff166108fc829081150290604051600060405180830381858888f19350505050158015611114573d6000803e3d6000fd5b505050565b60076020528060005260406000206000915090505481565b6000600560003373ffffffffffffffffffffffffffffffffffffffff1673ffffffffffffffffffffffffffffffffffffffff1681526020019081526020016000209050600081600001546002546111889190611b94565b905060003390508073ffffffffffffffffffffffffffffffffffffffff166108fc839081150290604051600060405180830381858888f193505050501580156111d5573d6000803e3d6000fd5b5060008360000181905550505050565b50805460008255600202906000526020600020908101906112069190611249565b50565b508054611215906117bd565b6000825580601f106112275750611246565b601f0160209004906000526020600020908101906112459190611278565b5b50565b5b8082111561127457600080820160006112639190611209565b60018201600090555060020161124a565b5090565b5b80821115611291576000816000905550600101611279565b5090565b6000819050919050565b6112a881611295565b82525050565b60006020820190506112c3600083018461129f565b92915050565b6000604051905090565b600080fd5b600080fd5b6112e681611295565b81146112f157600080fd5b50565b600081359050611303816112dd565b92915050565b60006020828403121561131f5761131e6112d3565b5b600061132d848285016112f4565b91505092915050565b600081519050919050565b600082825260208201905092915050565b60005b83811015611370578082015181840152602081019050611355565b60008484015250505050565b6000601f19601f8301169050919050565b600061139882611336565b6113a28185611341565b93506113b2818560208601611352565b6113bb8161137c565b840191505092915050565b600060408201905081810360008301526113e0818561138d565b90506113ef602083018461129f565b9392505050565b600073ffffffffffffffffffffffffffffffffffffffff82169050919050565b6000611421826113f6565b9050919050565b61143181611416565b811461143c57600080fd5b50565b60008135905061144e81611428565b92915050565b60006020828403121561146a576114696112d3565b5b60006114788482850161143f565b91505092915050565b600080fd5b600080fd5b7f4e487b7100000000000000000000000000000000000000000000000000000000600052604160045260246000fd5b6114c38261137c565b810181811067ffffffffffffffff821117156114e2576114e161148b565b5b80604052505050565b60006114f56112c9565b905061150182826114ba565b919050565b600067ffffffffffffffff8211156115215761152061148b565b5b61152a8261137c565b9050602081019050919050565b82818337600083830152505050565b600061155961155484611506565b6114eb565b90508281526020810184848401111561157557611574611486565b5b611580848285611537565b509392505050565b600082601f83011261159d5761159c611481565b5b81356115ad848260208601611546565b91505092915050565b600080604083850312156115cd576115cc6112d3565b5b600083013567ffffffffffffffff8111156115eb576115ea6112d8565b5b6115f785828601611588565b9250506020611608858286016112f4565b9150509250929050565b60008060408385031215611629576116286112d3565b5b60006116378582860161143f565b9250506020611648858286016112f4565b9150509250929050565b61165b81611416565b82525050565b60006020820190506116766000830184611652565b92915050565b60008060408385031215611693576116926112d3565b5b60006116a1858286016112f4565b92505060206116b2858286016112f4565b9150509250929050565b600080604083850312156116d3576116d26112d3565b5b60006116e1858286016112f4565b92505060206116f28582860161143f565b9150509250929050565b7f4e487b7100000000000000000000000000000000000000000000000000000000600052603260045260246000fd5b7f4e487b7100000000000000000000000000000000000000000000000000000000600052601160045260246000fd5b600061176582611295565b915061177083611295565b92508282019050808211156117885761178761172b565b5b92915050565b7f4e487b7100000000000000000000000000000000000000000000000000000000600052602260045260246000fd5b600060028204905060018216806117d557607f821691505b6020821081036117e8576117e761178e565b5b50919050565b6000815490506117fd816117bd565b9050919050565b60008190508160005260206000209050919050565b60006020601f8301049050919050565b600082821b905092915050565b6000600883026118667fffffffffffffffffffffffffffffffffffffffffffffffffffffffffffffffff82611829565b6118708683611829565b95508019841693508086168417925050509392505050565b6000819050919050565b60006118ad6118a86118a384611295565b611888565b611295565b9050919050565b6000819050919050565b6118c783611892565b6118db6118d3826118b4565b848454611836565b825550505050565b600090565b6118f06118e3565b6118fb8184846118be565b505050565b5b8181101561191f576119146000826118e8565b600181019050611901565b5050565b601f8211156119645761193581611804565b61193e84611819565b8101602085101561194d578190505b61196161195985611819565b830182611900565b50505b505050565b600082821c905092915050565b600061198760001984600802611969565b1980831691505092915050565b60006119a08383611976565b9150826002028217905092915050565b8181036119be575050611a96565b6119c7826117ee565b67ffffffffffffffff8111156119e0576119df61148b565b5b6119ea82546117bd565b6119f5828285611923565b6000601f831160018114611a245760008415611a12578287015490505b611a1c8582611994565b865550611a8f565b601f198416611a3287611804565b9650611a3d86611804565b60005b82811015611a6557848901548255600182019150600185019450602081019050611a40565b86831015611a825784890154611a7e601f891682611976565b8355505b6001600288020188555050505b5050505050505b565b6000611aa382611295565b91507fffffffffffffffffffffffffffffffffffffffffffffffffffffffffffffffff8203611ad557611ad461172b565b5b600182019050919050565b60008154611aed816117bd565b611af78186611341565b94506001821660008114611b125760018114611b2857611b5b565b60ff198316865281151560200286019350611b5b565b611b3185611804565b60005b83811015611b5357815481890152600182019150602081019050611b34565b808801955050505b50505092915050565b6000604082019050611b79600083018561129f565b8181036020830152611b8b8184611ae0565b90509392505050565b6000611b9f82611295565b9150611baa83611295565b9250828202611bb881611295565b91508282048414831517611bcf57611bce61172b565b5b5092915050565b611bdf82611336565b67ffffffffffffffff811115611bf857611bf761148b565b5b611c0282546117bd565b611c0d828285611923565b600060209050601f831160018114611c405760008415611c2e578287015190505b611c388582611994565b865550611ca0565b601f198416611c4e86611804565b60005b82811015611c7657848901518255600182019150602085019450602081019050611c51565b86831015611c935784890151611c8f601f891682611976565b8355505b6001600288020188555050505b505050505050565b7f466c6967687420696e646578206f7574206f662072616e676500000000000000600082015250565b6000611cde601983611341565b9150611ce982611ca8565b602082019050919050565b60006020820190508181036000830152611d0d81611cd1565b9050919050565b60006040820190508181036000830152611d2e8185611ae0565b9050611d3d602083018461129f565b9392505050565b7f466c6967687420696e646578206f7574206f6620626f756e6473000000000000600082015250565b6000611d7a601a83611341565b9150611d8582611d44565b602082019050919050565b60006020820190508181036000830152611da981611d6d565b9050919050565b6000611dbb82611295565b9150611dc683611295565b9250828203905081811115611dde57611ddd61172b565b5b92915050565b7f4e487b7100000000000000000000000000000000000000000000000000000000600052603160045260246000fd5b7f436f6e747261637420686173206e6f2062616c616e636520746f207472616e7360008201527f6665720000000000000000000000000000000000000000000000000000000000602082015250565b6000611e6f602383611341565b9150611e7a82611e13565b604082019050919050565b60006020820190508181036000830152611e9e81611e62565b905091905056fea264697066735822122004cab4a97c5466d03e77a2eb8092f311dfb77795a006f83ea84bb8308a44d88a64736f6c63430008130033",
  "immutableReferences": {},
  "source": "    // SPDX-License-Identifier: MIT\npragma solidity >=0.7.0 <0.9.0;\n\ncontract Airline {\n\n  address public owner;\n  uint256 public count;\n\n  struct Customer {\n      uint loyaltyPoints;\n  }\n\n  struct Flight {\n      string name;\n      uint256 price;\n  }\n\n  uint etherPerPoint = 0.5 ether;\n\n  Flight[] public flights;\n\n  mapping(uint256 => address) public getAddress;\n  mapping(address => Customer) public customers;\n  mapping(address => Flight[]) public customerFlights;\n  mapping(address => uint) public customerTotalFlights;\n\n  event FlightPurchased(address indexed customer, uint price, string flight);\n  event FlightPriceUpdated(string flight, uint newPrice);\n\n    constructor() {\n      owner = msg.sender;\n      flights.push(Flight('Tokio', 4 ether));\n      flights.push(Flight('Germany', 3 ether));\n      flights.push(Flight('Madrid', 3 ether));\n      count = 0;\n    }\n\n    function buyFlight(uint flightIndex) public payable {\n        Flight storage flight = flights[flightIndex];\n        require(msg.value == flight.price);\n\n        Customer storage customer = customers[msg.sender];\n        customer.loyaltyPoints += 5;\n        customerFlights[msg.sender].push(flight);\n        customerTotalFlights[msg.sender] ++;\n        getAddress[count] = msg.sender;\n        count ++;\n\n        emit FlightPurchased(msg.sender, flight.price, flight.name);\n    }\n\n    function totalFlights() public view returns (uint) {\n        return flights.length;\n    }\n\n    function redeemLoyaltyPoints() public {\n        Customer storage customer = customers[msg.sender];\n        uint etherToRefund = etherPerPoint * customer.loyaltyPoints;\n\n        address payable passenger = payable(msg.sender);\n        passenger.transfer(etherToRefund);\n        customer.loyaltyPoints = 0;\n    }\n\n    function getRefundableEther() public view returns (uint) {\n        return etherPerPoint * customers[msg.sender].loyaltyPoints;\n    }\n\n    function getAirlineBalance() public isOwner view returns (uint) {\n        address airlineAddress = address(this);\n        return airlineAddress.balance;\n    }\n\n    function transferFundsToOwner() public isOwner {\n        address payable ownerWallet = payable(owner);\n        uint contractBalance = address(this).balance;\n        require(contractBalance > 0, \"Contract has no balance to transfer\");\n\n        ownerWallet.transfer(contractBalance);\n    }\n\n    function updateFlightPrice(uint flightIndex, uint newPrice) public isOwner {\n        require(flightIndex < flights.length, \"Flight index out of range\");\n        Flight storage flight = flights[flightIndex];\n        flight.price = newPrice;\n        emit FlightPriceUpdated(flight.name, newPrice);\n    }\n\n    function addFlight(string memory name, uint256 price) public isOwner {\n        flights.push(Flight(name, price));\n    }\n\n    function removeFlight(uint256 flightIndex) public isOwner {\n        require(flightIndex < flights.length, \"Flight index out of bounds\");\n        for (uint256 i = flightIndex; i < flights.length - 1; i++) {\n            flights[i] = flights[i+1];\n        }\n        flights.pop();\n    }\n\n    function deleteCustomerFlights(address customerAddress) public isOwner {\n        delete customerFlights[customerAddress];\n    }\n\n    function deleteCustomerTotalFlights(address customerAddress) public isOwner {\n        delete customerTotalFlights[customerAddress];\n    }\n\n\n    function transferMoney(uint amount) public isOwner {\n        require(address(this).balance >= amount);\n        payable(owner).transfer(amount);\n    }\n\n\n    function transferTo(uint amount, address to) public isOwner {\n        require(address(this).balance >= amount);\n        require(to != address(0));\n        payable(to).transfer(amount);\n    }\n\n    modifier isOwner() {\n        require(msg.sender == owner);\n        _;\n    }\n}\n",
  "sourcePath": "/home/oem/Desktop/AP./pasarela_pagos_ethereum/pasarela_backend_Ethereum/contracts/Airline.sol",
  "compiler": {
    "name": "solc",
    "version": "0.8.19+commit.7dd6d404.Emscripten.clang"
  },
  "schemaVersion": "3.4.13",
  "updatedAt": "2023-05-19T14:48:34.228Z",
  "networkType": "ethereum",
  "devdoc": {
    "kind": "dev",
    "methods": {},
    "version": 1
  },
  "userdoc": {
    "kind": "user",
    "methods": {},
    "version": 1
  }
}