{
  "contractName": "PaymentContract",
  "abi": [
    {
      "inputs": [],
      "stateMutability": "nonpayable",
      "type": "constructor"
    },
    {
      "anonymous": false,
      "inputs": [
        {
          "indexed": true,
          "internalType": "address",
          "name": "customer",
          "type": "address"
        },
        {
          "indexed": false,
          "internalType": "uint256",
          "name": "productIndex",
          "type": "uint256"
        },
        {
          "indexed": false,
          "internalType": "enum PaymentContract.Status",
          "name": "newStatus",
          "type": "uint8"
        }
      ],
      "name": "OrderStatusUpdated",
      "type": "event"
    },
    {
      "anonymous": false,
      "inputs": [
        {
          "indexed": true,
          "internalType": "address",
          "name": "sender",
          "type": "address"
        },
        {
          "indexed": false,
          "internalType": "uint256",
          "name": "amount",
          "type": "uint256"
        },
        {
          "indexed": false,
          "internalType": "uint256",
          "name": "idProduct",
          "type": "uint256"
        },
        {
          "indexed": false,
          "internalType": "string",
          "name": "name",
          "type": "string"
        }
      ],
      "name": "PaymentReceived",
      "type": "event"
    },
    {
      "inputs": [],
      "name": "count",
      "outputs": [
        {
          "internalType": "uint256",
          "name": "",
          "type": "uint256"
        }
      ],
      "stateMutability": "view",
      "type": "function",
      "constant": true
    },
    {
      "inputs": [
        {
          "internalType": "uint256",
          "name": "",
          "type": "uint256"
        }
      ],
      "name": "getAddress",
      "outputs": [
        {
          "internalType": "address",
          "name": "",
          "type": "address"
        }
      ],
      "stateMutability": "view",
      "type": "function",
      "constant": true
    },
    {
      "inputs": [],
      "name": "owner",
      "outputs": [
        {
          "internalType": "address",
          "name": "",
          "type": "address"
        }
      ],
      "stateMutability": "view",
      "type": "function",
      "constant": true
    },
    {
      "inputs": [
        {
          "internalType": "address",
          "name": "",
          "type": "address"
        },
        {
          "internalType": "uint256",
          "name": "",
          "type": "uint256"
        }
      ],
      "name": "productsByAddress",
      "outputs": [
        {
          "internalType": "uint256",
          "name": "id",
          "type": "uint256"
        },
        {
          "internalType": "string",
          "name": "name",
          "type": "string"
        },
        {
          "internalType": "uint256",
          "name": "price",
          "type": "uint256"
        },
        {
          "internalType": "uint256",
          "name": "timestamp",
          "type": "uint256"
        },
        {
          "internalType": "enum PaymentContract.Status",
          "name": "orderStatus",
          "type": "uint8"
        }
      ],
      "stateMutability": "view",
      "type": "function",
      "constant": true
    },
    {
      "inputs": [
        {
          "internalType": "uint256",
          "name": "idProduct",
          "type": "uint256"
        },
        {
          "internalType": "string",
          "name": "name",
          "type": "string"
        }
      ],
      "name": "pay",
      "outputs": [],
      "stateMutability": "payable",
      "type": "function",
      "payable": true
    },
    {
      "inputs": [
        {
          "internalType": "address",
          "name": "customerAddress",
          "type": "address"
        },
        {
          "internalType": "uint256",
          "name": "productIndex",
          "type": "uint256"
        },
        {
          "internalType": "enum PaymentContract.Status",
          "name": "newStatus",
          "type": "uint8"
        }
      ],
      "name": "updateOrderStatus",
      "outputs": [],
      "stateMutability": "nonpayable",
      "type": "function"
    },
    {
      "inputs": [],
      "name": "getContractBalance",
      "outputs": [
        {
          "internalType": "uint256",
          "name": "",
          "type": "uint256"
        }
      ],
      "stateMutability": "view",
      "type": "function",
      "constant": true
    },
    {
      "inputs": [
        {
          "internalType": "address",
          "name": "account",
          "type": "address"
        }
      ],
      "name": "getBalanceEachAddress",
      "outputs": [
        {
          "internalType": "uint256",
          "name": "",
          "type": "uint256"
        }
      ],
      "stateMutability": "view",
      "type": "function",
      "constant": true
    },
    {
      "inputs": [],
      "name": "transferFundsToOwner",
      "outputs": [],
      "stateMutability": "nonpayable",
      "type": "function"
    },
    {
      "inputs": [
        {
          "internalType": "uint256",
          "name": "amount",
          "type": "uint256"
        },
        {
          "internalType": "address",
          "name": "to",
          "type": "address"
        }
      ],
      "name": "transferTo",
      "outputs": [],
      "stateMutability": "nonpayable",
      "type": "function"
    }
  ],
  "bytecode": "0x608060405234801561001057600080fd5b50336000806101000a81548173ffffffffffffffffffffffffffffffffffffffff021916908373ffffffffffffffffffffffffffffffffffffffff1602179055506000600181905550611b9f806100686000396000f3fe6080604052600436106100915760003560e01c80638da5cb5b116100595780638da5cb5b1461016e5780638ffce9f014610199578063b93f9b0a146101da578063d4822fbf14610217578063ec8af07d1461024057610091565b806306661abd14610096578063154fbbc4146100c1578063526fa1d5146100dd5780636f9fb98a1461010657806373e4f4ef14610131575b600080fd5b3480156100a257600080fd5b506100ab610257565b6040516100b89190610e4e565b60405180910390f35b6100db60048036038101906100d69190610f04565b61025d565b005b3480156100e957600080fd5b5061010460048036038101906100ff9190610fe7565b610558565b005b34801561011257600080fd5b5061011b61081f565b6040516101289190610e4e565b60405180910390f35b34801561013d57600080fd5b506101586004803603810190610153919061103a565b6108b6565b6040516101659190610e4e565b60405180910390f35b34801561017a57600080fd5b5061018361098e565b6040516101909190611076565b60405180910390f35b3480156101a557600080fd5b506101c060048036038101906101bb9190611091565b6109b2565b6040516101d19594939291906111d8565b60405180910390f35b3480156101e657600080fd5b5061020160048036038101906101fc9190611232565b610a9a565b60405161020e9190611076565b60405180910390f35b34801561022357600080fd5b5061023e6004803603810190610239919061125f565b610acd565b005b34801561024c57600080fd5b50610255610c88565b005b60015481565b600034116102a0576040517f08c379a000000000000000000000000000000000000000000000000000000000815260040161029790611311565b60405180910390fd5b34600260003373ffffffffffffffffffffffffffffffffffffffff1673ffffffffffffffffffffffffffffffffffffffff16815260200190815260200160002060008282546102ef9190611360565b925050819055506000600460003373ffffffffffffffffffffffffffffffffffffffff1673ffffffffffffffffffffffffffffffffffffffff16815260200190815260200160002080549050036103ad573360036000600154815260200190815260200160002060006101000a81548173ffffffffffffffffffffffffffffffffffffffff021916908373ffffffffffffffffffffffffffffffffffffffff160217905550600160008154809291906103a790611394565b91905055505b60006040518060a0016040528085815260200184848080601f016020809104026020016040519081016040528093929190818152602001838380828437600081840152601f19601f8201169050808301925050505050505081526020013481526020014281526020016000600381111561042a57610429611161565b5b8152509050600460003373ffffffffffffffffffffffffffffffffffffffff1673ffffffffffffffffffffffffffffffffffffffff1681526020019081526020016000208190806001815401808255809150506001900390600052602060002090600502016000909190919091506000820151816000015560208201518160010190816104b79190611617565b50604082015181600201556060820151816003015560808201518160040160006101000a81548160ff021916908360038111156104f7576104f6611161565b5b021790555050503373ffffffffffffffffffffffffffffffffffffffff167f237b94339b1dc667f5a951cf2ee33f00228f658a6ab811cc6afa6caaa4b80cfa3486868660405161054a9493929190611725565b60405180910390a250505050565b60008054906101000a900473ffffffffffffffffffffffffffffffffffffffff1673ffffffffffffffffffffffffffffffffffffffff163373ffffffffffffffffffffffffffffffffffffffff16146105e6576040517f08c379a00000000000000000000000000000000000000000000000000000000081526004016105dd906117d7565b60405180910390fd5b600460008473ffffffffffffffffffffffffffffffffffffffff1673ffffffffffffffffffffffffffffffffffffffff16815260200190815260200160002080549050821061066a576040517f08c379a000000000000000000000000000000000000000000000000000000000815260040161066190611843565b60405180910390fd5b600460008473ffffffffffffffffffffffffffffffffffffffff1673ffffffffffffffffffffffffffffffffffffffff16815260200190815260200160002082815481106106bb576106ba611863565b5b906000526020600020906005020160040160009054906101000a900460ff1660038111156106ec576106eb611161565b5b8160038111156106ff576106fe611161565b5b1015610740576040517f08c379a000000000000000000000000000000000000000000000000000000000815260040161073790611904565b60405180910390fd5b80600460008573ffffffffffffffffffffffffffffffffffffffff1673ffffffffffffffffffffffffffffffffffffffff168152602001908152602001600020838154811061079257610791611863565b5b906000526020600020906005020160040160006101000a81548160ff021916908360038111156107c5576107c4611161565b5b02179055508273ffffffffffffffffffffffffffffffffffffffff167fae522b0429a454e1edea2a724c1136f1d6910bd8415a5920f99365c5ed4f54828383604051610812929190611924565b60405180910390a2505050565b60008060009054906101000a900473ffffffffffffffffffffffffffffffffffffffff1673ffffffffffffffffffffffffffffffffffffffff163373ffffffffffffffffffffffffffffffffffffffff16146108b0576040517f08c379a00000000000000000000000000000000000000000000000000000000081526004016108a7906117d7565b60405180910390fd5b47905090565b60008060009054906101000a900473ffffffffffffffffffffffffffffffffffffffff1673ffffffffffffffffffffffffffffffffffffffff163373ffffffffffffffffffffffffffffffffffffffff1614610947576040517f08c379a000000000000000000000000000000000000000000000000000000000815260040161093e906117d7565b60405180910390fd5b600260008373ffffffffffffffffffffffffffffffffffffffff1673ffffffffffffffffffffffffffffffffffffffff168152602001908152602001600020549050919050565b60008054906101000a900473ffffffffffffffffffffffffffffffffffffffff1681565b600460205281600052604060002081815481106109ce57600080fd5b9060005260206000209060050201600091509150508060000154908060010180546109f89061143a565b80601f0160208091040260200160405190810160405280929190818152602001828054610a249061143a565b8015610a715780601f10610a4657610100808354040283529160200191610a71565b820191906000526020600020905b815481529060010190602001808311610a5457829003601f168201915b5050505050908060020154908060030154908060040160009054906101000a900460ff16905085565b60036020528060005260406000206000915054906101000a900473ffffffffffffffffffffffffffffffffffffffff1681565b60008054906101000a900473ffffffffffffffffffffffffffffffffffffffff1673ffffffffffffffffffffffffffffffffffffffff163373ffffffffffffffffffffffffffffffffffffffff1614610b5b576040517f08c379a0000000000000000000000000000000000000000000000000000000008152600401610b52906117d7565b60405180910390fd5b81471015610b6857600080fd5b600073ffffffffffffffffffffffffffffffffffffffff168173ffffffffffffffffffffffffffffffffffffffff1603610bd7576040517f08c379a0000000000000000000000000000000000000000000000000000000008152600401610bce90611999565b60405180910390fd5b60008173ffffffffffffffffffffffffffffffffffffffff1683604051610bfd906119ea565b60006040518083038185875af1925050503d8060008114610c3a576040519150601f19603f3d011682016040523d82523d6000602084013e610c3f565b606091505b5050905080610c83576040517f08c379a0000000000000000000000000000000000000000000000000000000008152600401610c7a90611a4b565b60405180910390fd5b505050565b60008054906101000a900473ffffffffffffffffffffffffffffffffffffffff1673ffffffffffffffffffffffffffffffffffffffff163373ffffffffffffffffffffffffffffffffffffffff1614610d16576040517f08c379a0000000000000000000000000000000000000000000000000000000008152600401610d0d906117d7565b60405180910390fd5b60008060009054906101000a900473ffffffffffffffffffffffffffffffffffffffff169050600047905060008111610d84576040517f08c379a0000000000000000000000000000000000000000000000000000000008152600401610d7b90611add565b60405180910390fd5b60008273ffffffffffffffffffffffffffffffffffffffff1682604051610daa906119ea565b60006040518083038185875af1925050503d8060008114610de7576040519150601f19603f3d011682016040523d82523d6000602084013e610dec565b606091505b5050905080610e30576040517f08c379a0000000000000000000000000000000000000000000000000000000008152600401610e2790611b49565b60405180910390fd5b505050565b6000819050919050565b610e4881610e35565b82525050565b6000602082019050610e636000830184610e3f565b92915050565b600080fd5b600080fd5b610e7c81610e35565b8114610e8757600080fd5b50565b600081359050610e9981610e73565b92915050565b600080fd5b600080fd5b600080fd5b60008083601f840112610ec457610ec3610e9f565b5b8235905067ffffffffffffffff811115610ee157610ee0610ea4565b5b602083019150836001820283011115610efd57610efc610ea9565b5b9250929050565b600080600060408486031215610f1d57610f1c610e69565b5b6000610f2b86828701610e8a565b935050602084013567ffffffffffffffff811115610f4c57610f4b610e6e565b5b610f5886828701610eae565b92509250509250925092565b600073ffffffffffffffffffffffffffffffffffffffff82169050919050565b6000610f8f82610f64565b9050919050565b610f9f81610f84565b8114610faa57600080fd5b50565b600081359050610fbc81610f96565b92915050565b60048110610fcf57600080fd5b50565b600081359050610fe181610fc2565b92915050565b60008060006060848603121561100057610fff610e69565b5b600061100e86828701610fad565b935050602061101f86828701610e8a565b925050604061103086828701610fd2565b9150509250925092565b6000602082840312156110505761104f610e69565b5b600061105e84828501610fad565b91505092915050565b61107081610f84565b82525050565b600060208201905061108b6000830184611067565b92915050565b600080604083850312156110a8576110a7610e69565b5b60006110b685828601610fad565b92505060206110c785828601610e8a565b9150509250929050565b600081519050919050565b600082825260208201905092915050565b60005b8381101561110b5780820151818401526020810190506110f0565b60008484015250505050565b6000601f19601f8301169050919050565b6000611133826110d1565b61113d81856110dc565b935061114d8185602086016110ed565b61115681611117565b840191505092915050565b7f4e487b7100000000000000000000000000000000000000000000000000000000600052602160045260246000fd5b600481106111a1576111a0611161565b5b50565b60008190506111b282611190565b919050565b60006111c2826111a4565b9050919050565b6111d2816111b7565b82525050565b600060a0820190506111ed6000830188610e3f565b81810360208301526111ff8187611128565b905061120e6040830186610e3f565b61121b6060830185610e3f565b61122860808301846111c9565b9695505050505050565b60006020828403121561124857611247610e69565b5b600061125684828501610e8a565b91505092915050565b6000806040838503121561127657611275610e69565b5b600061128485828601610e8a565b925050602061129585828601610fad565b9150509250929050565b7f5061796d656e7420616d6f756e74206d7573742062652067726561746572207460008201527f68616e207a65726f000000000000000000000000000000000000000000000000602082015250565b60006112fb6028836110dc565b91506113068261129f565b604082019050919050565b6000602082019050818103600083015261132a816112ee565b9050919050565b7f4e487b7100000000000000000000000000000000000000000000000000000000600052601160045260246000fd5b600061136b82610e35565b915061137683610e35565b925082820190508082111561138e5761138d611331565b5b92915050565b600061139f82610e35565b91507fffffffffffffffffffffffffffffffffffffffffffffffffffffffffffffffff82036113d1576113d0611331565b5b600182019050919050565b7f4e487b7100000000000000000000000000000000000000000000000000000000600052604160045260246000fd5b7f4e487b7100000000000000000000000000000000000000000000000000000000600052602260045260246000fd5b6000600282049050600182168061145257607f821691505b6020821081036114655761146461140b565b5b50919050565b60008190508160005260206000209050919050565b60006020601f8301049050919050565b600082821b905092915050565b6000600883026114cd7fffffffffffffffffffffffffffffffffffffffffffffffffffffffffffffffff82611490565b6114d78683611490565b95508019841693508086168417925050509392505050565b6000819050919050565b600061151461150f61150a84610e35565b6114ef565b610e35565b9050919050565b6000819050919050565b61152e836114f9565b61154261153a8261151b565b84845461149d565b825550505050565b600090565b61155761154a565b611562818484611525565b505050565b5b818110156115865761157b60008261154f565b600181019050611568565b5050565b601f8211156115cb5761159c8161146b565b6115a584611480565b810160208510156115b4578190505b6115c86115c085611480565b830182611567565b50505b505050565b600082821c905092915050565b60006115ee600019846008026115d0565b1980831691505092915050565b600061160783836115dd565b9150826002028217905092915050565b611620826110d1565b67ffffffffffffffff811115611639576116386113dc565b5b611643825461143a565b61164e82828561158a565b600060209050601f831160018114611681576000841561166f578287015190505b61167985826115fb565b8655506116e1565b601f19841661168f8661146b565b60005b828110156116b757848901518255600182019150602085019450602081019050611692565b868310156116d457848901516116d0601f8916826115dd565b8355505b6001600288020188555050505b505050505050565b82818337600083830152505050565b600061170483856110dc565b93506117118385846116e9565b61171a83611117565b840190509392505050565b600060608201905061173a6000830187610e3f565b6117476020830186610e3f565b818103604083015261175a8184866116f8565b905095945050505050565b7f536f6c6f20656c2070726f706965746172696f207075656465206c6c616d617260008201527f20657374612066756e63696f6e00000000000000000000000000000000000000602082015250565b60006117c1602d836110dc565b91506117cc82611765565b604082019050919050565b600060208201905081810360008301526117f0816117b4565b9050919050565b7f496e646963652064652070726f647563746f20696e76616c69646f0000000000600082015250565b600061182d601b836110dc565b9150611838826117f7565b602082019050919050565b6000602082019050818103600083015261185c81611820565b9050919050565b7f4e487b7100000000000000000000000000000000000000000000000000000000600052603260045260246000fd5b7f456c206e7565766f2065737461646f206e6f2070756564652073657220616e7460008201527f6572696f7220616c2061637475616c0000000000000000000000000000000000602082015250565b60006118ee602f836110dc565b91506118f982611892565b604082019050919050565b6000602082019050818103600083015261191d816118e1565b9050919050565b60006040820190506119396000830185610e3f565b61194660208301846111c9565b9392505050565b7f446972656363696f6e206e6f2076616c69646100000000000000000000000000600082015250565b60006119836013836110dc565b915061198e8261194d565b602082019050919050565b600060208201905081810360008301526119b281611976565b9050919050565b600081905092915050565b50565b60006119d46000836119b9565b91506119df826119c4565b600082019050919050565b60006119f5826119c7565b9150819050919050565b7f5472616e73666572656e6369612066616c6c6964610000000000000000000000600082015250565b6000611a356015836110dc565b9150611a40826119ff565b602082019050919050565b60006020820190508181036000830152611a6481611a28565b9050919050565b7f436f6e747261637420686173206e6f2062616c616e636520746f207472616e7360008201527f6665720000000000000000000000000000000000000000000000000000000000602082015250565b6000611ac76023836110dc565b9150611ad282611a6b565b604082019050919050565b60006020820190508181036000830152611af681611aba565b9050919050565b7f5472616e73666572656e63696120616c206f776e65722066616c6c6964610000600082015250565b6000611b33601e836110dc565b9150611b3e82611afd565b602082019050919050565b60006020820190508181036000830152611b6281611b26565b905091905056fea2646970667358221220bd9c5f3c836fb5b538a16fe6ff466bde096f30670c60dca9194a770d15650d0464736f6c63430008130033",
  "immutableReferences": {},
  "source": "// SPDX-License-Identifier: MIT\npragma solidity >=0.7.0 <0.9.0;\n\ncontract PaymentContract {\n    address public owner;\n    uint256 public count;\n\n    // RESTAURADO: El mapping para el balance total gastado por cada dirección\n    mapping(address => uint256) private balances;\n\n    // ELIMINADO: Se elimina 'mapping(uint256 => uint256) public productPrices;'\n    // ELIMINADO: Se elimina la función 'setProductPrice'\n\n    enum Status {\n        PENDIENTE,  // 0: Pago recibido, esperando procesamiento\n        EN_PROCESO, // 1: Preparación del pedido\n        ENVIADO,    // 2: Producto enviado al cliente\n        ENTREGADO   // 3: Cliente ha confirmado recepción\n    }\n\n    struct Product {\n        uint256 id;\n        string name;\n        uint256 price;\n        uint256 timestamp;\n        Status orderStatus;\n    }\n\n    // Las direcciones que van comprando en orden\n    mapping(uint256 => address) public getAddress;\n    // Los productos comprados por cada dirección\n    mapping(address => Product[]) public productsByAddress;\n\n    constructor() {\n        owner = msg.sender;\n        count = 0;\n    }\n\n    event PaymentReceived(address indexed sender, uint256 amount, uint256 idProduct, string name);\n    event OrderStatusUpdated(address indexed customer, uint256 productIndex, Status newStatus);\n\n    // RESTAURADO: Función 'pay' sin verificación de precio estricta.\n    // MEJORA: Se usa 'calldata' y se mantiene el chequeo básico de valor > 0.\n    function pay(uint256 idProduct, string calldata name) public payable {\n        // Mantiene el chequeo básico: el cliente debe enviar algo.\n        require(msg.value > 0, \"Payment amount must be greater than zero\");\n\n        // RESTAURADO: Acumula el balance total gastado por el cliente\n        balances[msg.sender] += msg.value;\n\n        if (productsByAddress[msg.sender].length == 0) {\n            getAddress[count] = msg.sender;\n            count++;\n        }\n\n        Product memory productIn = Product(\n            idProduct,\n            name,\n            msg.value, // El precio es el valor enviado por el cliente (msg.value)\n            block.timestamp,\n            Status.PENDIENTE\n        );\n        productsByAddress[msg.sender].push(productIn);\n\n        emit PaymentReceived(msg.sender, msg.value, idProduct, name);\n    }\n\n    // 4. FUNCIÓN DE ADMINISTRACIÓN DE PEDIDOS (se mantiene la mejora de flujo)\n    function updateOrderStatus(\n        address customerAddress,\n        uint256 productIndex,\n        Status newStatus\n    ) public isOwner {\n        require(productIndex < productsByAddress[customerAddress].length, \"Indice de producto invalido\");\n        // Mantiene la mejora: asegura que el estado solo pueda avanzar (o ser igual).\n        require(newStatus >= productsByAddress[customerAddress][productIndex].orderStatus, \"El nuevo estado no puede ser anterior al actual\");\n\n        productsByAddress[customerAddress][productIndex].orderStatus = newStatus;\n\n        emit OrderStatusUpdated(customerAddress, productIndex, newStatus);\n    }\n\n    // Obtener el balance total del contrato\n    function getContractBalance() public isOwner view returns (uint) {\n        return address(this).balance;\n    }\n\n    // RESTAURADO: El balance que ha gastado cada billetera\n    function getBalanceEachAddress(address account) public view isOwner returns (uint256) {\n        return balances[account];\n    }\n    \n    // MEJORA DE SEGURIDAD MANTENIDA: Uso de 'call' con verificación de éxito (anti-reentrancy)\n    function transferFundsToOwner() public isOwner {\n        address payable ownerWallet = payable(owner);\n        uint contractBalance = address(this).balance;\n        require(contractBalance > 0, \"Contract has no balance to transfer\");\n\n        // Se usa .call con value para una transferencia segura\n        (bool success, ) = ownerWallet.call{value: contractBalance}(\"\");\n        require(success, \"Transferencia al owner fallida\");\n    }\n\n    // MEJORA DE SEGURIDAD MANTENIDA: Uso de 'call' con verificación de éxito (anti-reentrancy)\n    function transferTo(uint amount, address to) public isOwner {\n        require(address(this).balance >= amount);\n        require(to != address(0), \"Direccion no valida\");\n        // Se usa .call con value para una transferencia segura\n        (bool success, ) = payable(to).call{value: amount}(\"\");\n        require(success, \"Transferencia fallida\");\n    }\n\n    // El propietario\n    modifier isOwner() {\n        require(msg.sender == owner, \"Solo el propietario puede llamar esta funcion\");\n        _;\n    }\n}\n",
  "sourcePath": "/home/ap/Desktop/projectsFamily/pasarela-de-pago-ethereum/pasarela_backend_Ethereum/contracts/PaymentContract.sol",
  "compiler": {
    "name": "solc",
    "version": "0.8.19+commit.7dd6d404.Emscripten.clang"
  },
  "schemaVersion": "3.4.16",
  "updatedAt": "2025-10-24T10:17:52.578Z",
  "networkType": "ethereum",
  "devdoc": {
    "kind": "dev",
    "methods": {},
    "version": 1
  },
  "userdoc": {
    "kind": "user",
    "methods": {},
    "version": 1
  }
}