{
  "contractName": "PaymentContract",
  "abi": [
    {
      "inputs": [],
      "stateMutability": "nonpayable",
      "type": "constructor"
    },
    {
      "anonymous": false,
      "inputs": [
        {
          "indexed": true,
          "internalType": "address",
          "name": "customer",
          "type": "address"
        },
        {
          "indexed": false,
          "internalType": "uint256",
          "name": "productIndex",
          "type": "uint256"
        },
        {
          "indexed": false,
          "internalType": "enum PaymentContract.Status",
          "name": "newStatus",
          "type": "uint8"
        }
      ],
      "name": "OrderStatusUpdated",
      "type": "event"
    },
    {
      "anonymous": false,
      "inputs": [
        {
          "indexed": true,
          "internalType": "address",
          "name": "sender",
          "type": "address"
        },
        {
          "indexed": false,
          "internalType": "uint256",
          "name": "amount",
          "type": "uint256"
        },
        {
          "indexed": false,
          "internalType": "uint256",
          "name": "idProduct",
          "type": "uint256"
        },
        {
          "indexed": false,
          "internalType": "string",
          "name": "name",
          "type": "string"
        }
      ],
      "name": "PaymentReceived",
      "type": "event"
    },
    {
      "inputs": [],
      "name": "count",
      "outputs": [
        {
          "internalType": "uint256",
          "name": "",
          "type": "uint256"
        }
      ],
      "stateMutability": "view",
      "type": "function",
      "constant": true
    },
    {
      "inputs": [
        {
          "internalType": "uint256",
          "name": "",
          "type": "uint256"
        }
      ],
      "name": "getAddress",
      "outputs": [
        {
          "internalType": "address",
          "name": "",
          "type": "address"
        }
      ],
      "stateMutability": "view",
      "type": "function",
      "constant": true
    },
    {
      "inputs": [],
      "name": "owner",
      "outputs": [
        {
          "internalType": "address",
          "name": "",
          "type": "address"
        }
      ],
      "stateMutability": "view",
      "type": "function",
      "constant": true
    },
    {
      "inputs": [
        {
          "internalType": "uint256",
          "name": "",
          "type": "uint256"
        }
      ],
      "name": "productPrices",
      "outputs": [
        {
          "internalType": "uint256",
          "name": "",
          "type": "uint256"
        }
      ],
      "stateMutability": "view",
      "type": "function",
      "constant": true
    },
    {
      "inputs": [
        {
          "internalType": "address",
          "name": "",
          "type": "address"
        },
        {
          "internalType": "uint256",
          "name": "",
          "type": "uint256"
        }
      ],
      "name": "productsByAddress",
      "outputs": [
        {
          "internalType": "uint256",
          "name": "id",
          "type": "uint256"
        },
        {
          "internalType": "string",
          "name": "name",
          "type": "string"
        },
        {
          "internalType": "uint256",
          "name": "price",
          "type": "uint256"
        },
        {
          "internalType": "uint256",
          "name": "timestamp",
          "type": "uint256"
        },
        {
          "internalType": "enum PaymentContract.Status",
          "name": "orderStatus",
          "type": "uint8"
        }
      ],
      "stateMutability": "view",
      "type": "function",
      "constant": true
    },
    {
      "inputs": [
        {
          "internalType": "uint256",
          "name": "idProduct",
          "type": "uint256"
        },
        {
          "internalType": "uint256",
          "name": "priceInWei",
          "type": "uint256"
        }
      ],
      "name": "setProductPrice",
      "outputs": [],
      "stateMutability": "nonpayable",
      "type": "function"
    },
    {
      "inputs": [
        {
          "internalType": "uint256",
          "name": "idProduct",
          "type": "uint256"
        },
        {
          "internalType": "string",
          "name": "name",
          "type": "string"
        }
      ],
      "name": "pay",
      "outputs": [],
      "stateMutability": "payable",
      "type": "function",
      "payable": true
    },
    {
      "inputs": [
        {
          "internalType": "address",
          "name": "customerAddress",
          "type": "address"
        },
        {
          "internalType": "uint256",
          "name": "productIndex",
          "type": "uint256"
        },
        {
          "internalType": "enum PaymentContract.Status",
          "name": "newStatus",
          "type": "uint8"
        }
      ],
      "name": "updateOrderStatus",
      "outputs": [],
      "stateMutability": "nonpayable",
      "type": "function"
    },
    {
      "inputs": [],
      "name": "getContractBalance",
      "outputs": [
        {
          "internalType": "uint256",
          "name": "",
          "type": "uint256"
        }
      ],
      "stateMutability": "view",
      "type": "function",
      "constant": true
    },
    {
      "inputs": [],
      "name": "transferFundsToOwner",
      "outputs": [],
      "stateMutability": "nonpayable",
      "type": "function"
    },
    {
      "inputs": [
        {
          "internalType": "uint256",
          "name": "amount",
          "type": "uint256"
        },
        {
          "internalType": "address",
          "name": "to",
          "type": "address"
        }
      ],
      "name": "transferTo",
      "outputs": [],
      "stateMutability": "nonpayable",
      "type": "function"
    }
  ],
  "bytecode": "0x608060405234801561001057600080fd5b50336000806101000a81548173ffffffffffffffffffffffffffffffffffffffff021916908373ffffffffffffffffffffffffffffffffffffffff1602179055506000600181905550611d91806100686000396000f3fe60806040526004361061009c5760003560e01c80636f9fb98a116100645780636f9fb98a146101775780638da5cb5b146101a25780638ffce9f0146101cd578063b93f9b0a1461020e578063d4822fbf1461024b578063ec8af07d146102745761009c565b806306661abd146100a1578063154fbbc4146100cc57806338eb6a19146100e857806344d3498a14610125578063526fa1d51461014e575b600080fd5b3480156100ad57600080fd5b506100b661028b565b6040516100c39190610ef7565b60405180910390f35b6100e660048036038101906100e19190610fad565b610291565b005b3480156100f457600080fd5b5061010f600480360381019061010a919061100d565b610591565b60405161011c9190610ef7565b60405180910390f35b34801561013157600080fd5b5061014c6004803603810190610147919061103a565b6105a9565b005b34801561015a57600080fd5b50610175600480360381019061017091906110fd565b6106d9565b005b34801561018357600080fd5b5061018c6109a0565b6040516101999190610ef7565b60405180910390f35b3480156101ae57600080fd5b506101b7610a37565b6040516101c4919061115f565b60405180910390f35b3480156101d957600080fd5b506101f460048036038101906101ef919061117a565b610a5b565b6040516102059594939291906112c1565b60405180910390f35b34801561021a57600080fd5b506102356004803603810190610230919061100d565b610b43565b604051610242919061115f565b60405180910390f35b34801561025757600080fd5b50610272600480360381019061026d919061131b565b610b76565b005b34801561028057600080fd5b50610289610d31565b005b60015481565b600060026000858152602001908152602001600020549050600081116102ec576040517f08c379a00000000000000000000000000000000000000000000000000000000081526004016102e3906113cd565b60405180910390fd5b80341461032e576040517f08c379a00000000000000000000000000000000000000000000000000000000081526004016103259061145f565b60405180910390fd5b6000600460003373ffffffffffffffffffffffffffffffffffffffff1673ffffffffffffffffffffffffffffffffffffffff16815260200190815260200160002080549050036103e5573360036000600154815260200190815260200160002060006101000a81548173ffffffffffffffffffffffffffffffffffffffff021916908373ffffffffffffffffffffffffffffffffffffffff160217905550600160008154809291906103df906114ae565b91905055505b60006040518060a0016040528086815260200185858080601f016020809104026020016040519081016040528093929190818152602001838380828437600081840152601f19601f820116905080830192505050505050508152602001348152602001428152602001600060038111156104625761046161124a565b5b8152509050600460003373ffffffffffffffffffffffffffffffffffffffff1673ffffffffffffffffffffffffffffffffffffffff1681526020019081526020016000208190806001815401808255809150506001900390600052602060002090600502016000909190919091506000820151816000015560208201518160010190816104ef9190611731565b50604082015181600201556060820151816003015560808201518160040160006101000a81548160ff0219169083600381111561052f5761052e61124a565b5b021790555050503373ffffffffffffffffffffffffffffffffffffffff167f237b94339b1dc667f5a951cf2ee33f00228f658a6ab811cc6afa6caaa4b80cfa34878787604051610582949392919061183f565b60405180910390a25050505050565b60026020528060005260406000206000915090505481565b60008054906101000a900473ffffffffffffffffffffffffffffffffffffffff1673ffffffffffffffffffffffffffffffffffffffff163373ffffffffffffffffffffffffffffffffffffffff1614610637576040517f08c379a000000000000000000000000000000000000000000000000000000000815260040161062e906118f1565b60405180910390fd5b6000821161067a576040517f08c379a00000000000000000000000000000000000000000000000000000000081526004016106719061195d565b60405180910390fd5b600081116106bd576040517f08c379a00000000000000000000000000000000000000000000000000000000081526004016106b4906119c9565b60405180910390fd5b8060026000848152602001908152602001600020819055505050565b60008054906101000a900473ffffffffffffffffffffffffffffffffffffffff1673ffffffffffffffffffffffffffffffffffffffff163373ffffffffffffffffffffffffffffffffffffffff1614610767576040517f08c379a000000000000000000000000000000000000000000000000000000000815260040161075e906118f1565b60405180910390fd5b600460008473ffffffffffffffffffffffffffffffffffffffff1673ffffffffffffffffffffffffffffffffffffffff1681526020019081526020016000208054905082106107eb576040517f08c379a00000000000000000000000000000000000000000000000000000000081526004016107e290611a35565b60405180910390fd5b600460008473ffffffffffffffffffffffffffffffffffffffff1673ffffffffffffffffffffffffffffffffffffffff168152602001908152602001600020828154811061083c5761083b611a55565b5b906000526020600020906005020160040160009054906101000a900460ff16600381111561086d5761086c61124a565b5b8160038111156108805761087f61124a565b5b10156108c1576040517f08c379a00000000000000000000000000000000000000000000000000000000081526004016108b890611af6565b60405180910390fd5b80600460008573ffffffffffffffffffffffffffffffffffffffff1673ffffffffffffffffffffffffffffffffffffffff168152602001908152602001600020838154811061091357610912611a55565b5b906000526020600020906005020160040160006101000a81548160ff021916908360038111156109465761094561124a565b5b02179055508273ffffffffffffffffffffffffffffffffffffffff167fae522b0429a454e1edea2a724c1136f1d6910bd8415a5920f99365c5ed4f54828383604051610993929190611b16565b60405180910390a2505050565b60008060009054906101000a900473ffffffffffffffffffffffffffffffffffffffff1673ffffffffffffffffffffffffffffffffffffffff163373ffffffffffffffffffffffffffffffffffffffff1614610a31576040517f08c379a0000000000000000000000000000000000000000000000000000000008152600401610a28906118f1565b60405180910390fd5b47905090565b60008054906101000a900473ffffffffffffffffffffffffffffffffffffffff1681565b60046020528160005260406000208181548110610a7757600080fd5b906000526020600020906005020160009150915050806000015490806001018054610aa190611554565b80601f0160208091040260200160405190810160405280929190818152602001828054610acd90611554565b8015610b1a5780601f10610aef57610100808354040283529160200191610b1a565b820191906000526020600020905b815481529060010190602001808311610afd57829003601f168201915b5050505050908060020154908060030154908060040160009054906101000a900460ff16905085565b60036020528060005260406000206000915054906101000a900473ffffffffffffffffffffffffffffffffffffffff1681565b60008054906101000a900473ffffffffffffffffffffffffffffffffffffffff1673ffffffffffffffffffffffffffffffffffffffff163373ffffffffffffffffffffffffffffffffffffffff1614610c04576040517f08c379a0000000000000000000000000000000000000000000000000000000008152600401610bfb906118f1565b60405180910390fd5b81471015610c1157600080fd5b600073ffffffffffffffffffffffffffffffffffffffff168173ffffffffffffffffffffffffffffffffffffffff1603610c80576040517f08c379a0000000000000000000000000000000000000000000000000000000008152600401610c7790611b8b565b60405180910390fd5b60008173ffffffffffffffffffffffffffffffffffffffff1683604051610ca690611bdc565b60006040518083038185875af1925050503d8060008114610ce3576040519150601f19603f3d011682016040523d82523d6000602084013e610ce8565b606091505b5050905080610d2c576040517f08c379a0000000000000000000000000000000000000000000000000000000008152600401610d2390611c3d565b60405180910390fd5b505050565b60008054906101000a900473ffffffffffffffffffffffffffffffffffffffff1673ffffffffffffffffffffffffffffffffffffffff163373ffffffffffffffffffffffffffffffffffffffff1614610dbf576040517f08c379a0000000000000000000000000000000000000000000000000000000008152600401610db6906118f1565b60405180910390fd5b60008060009054906101000a900473ffffffffffffffffffffffffffffffffffffffff169050600047905060008111610e2d576040517f08c379a0000000000000000000000000000000000000000000000000000000008152600401610e2490611ccf565b60405180910390fd5b60008273ffffffffffffffffffffffffffffffffffffffff1682604051610e5390611bdc565b60006040518083038185875af1925050503d8060008114610e90576040519150601f19603f3d011682016040523d82523d6000602084013e610e95565b606091505b5050905080610ed9576040517f08c379a0000000000000000000000000000000000000000000000000000000008152600401610ed090611d3b565b60405180910390fd5b505050565b6000819050919050565b610ef181610ede565b82525050565b6000602082019050610f0c6000830184610ee8565b92915050565b600080fd5b600080fd5b610f2581610ede565b8114610f3057600080fd5b50565b600081359050610f4281610f1c565b92915050565b600080fd5b600080fd5b600080fd5b60008083601f840112610f6d57610f6c610f48565b5b8235905067ffffffffffffffff811115610f8a57610f89610f4d565b5b602083019150836001820283011115610fa657610fa5610f52565b5b9250929050565b600080600060408486031215610fc657610fc5610f12565b5b6000610fd486828701610f33565b935050602084013567ffffffffffffffff811115610ff557610ff4610f17565b5b61100186828701610f57565b92509250509250925092565b60006020828403121561102357611022610f12565b5b600061103184828501610f33565b91505092915050565b6000806040838503121561105157611050610f12565b5b600061105f85828601610f33565b925050602061107085828601610f33565b9150509250929050565b600073ffffffffffffffffffffffffffffffffffffffff82169050919050565b60006110a58261107a565b9050919050565b6110b58161109a565b81146110c057600080fd5b50565b6000813590506110d2816110ac565b92915050565b600481106110e557600080fd5b50565b6000813590506110f7816110d8565b92915050565b60008060006060848603121561111657611115610f12565b5b6000611124868287016110c3565b935050602061113586828701610f33565b9250506040611146868287016110e8565b9150509250925092565b6111598161109a565b82525050565b60006020820190506111746000830184611150565b92915050565b6000806040838503121561119157611190610f12565b5b600061119f858286016110c3565b92505060206111b085828601610f33565b9150509250929050565b600081519050919050565b600082825260208201905092915050565b60005b838110156111f45780820151818401526020810190506111d9565b60008484015250505050565b6000601f19601f8301169050919050565b600061121c826111ba565b61122681856111c5565b93506112368185602086016111d6565b61123f81611200565b840191505092915050565b7f4e487b7100000000000000000000000000000000000000000000000000000000600052602160045260246000fd5b6004811061128a5761128961124a565b5b50565b600081905061129b82611279565b919050565b60006112ab8261128d565b9050919050565b6112bb816112a0565b82525050565b600060a0820190506112d66000830188610ee8565b81810360208301526112e88187611211565b90506112f76040830186610ee8565b6113046060830185610ee8565b61131160808301846112b2565b9695505050505050565b6000806040838503121561133257611331610f12565b5b600061134085828601610f33565b9250506020611351858286016110c3565b9150509250929050565b7f456c2049442064656c2070726f647563746f206e6f20657869737465206f206e60008201527f6f207469656e652070726563696f20617369676e61646f2e0000000000000000602082015250565b60006113b76038836111c5565b91506113c28261135b565b604082019050919050565b600060208201905081810360008301526113e6816113aa565b9050919050565b7f4d6f6e746f20696e636f72726563746f2e20506167617220656c20707265636960008201527f6f2065786163746f2e0000000000000000000000000000000000000000000000602082015250565b60006114496029836111c5565b9150611454826113ed565b604082019050919050565b600060208201905081810360008301526114788161143c565b9050919050565b7f4e487b7100000000000000000000000000000000000000000000000000000000600052601160045260246000fd5b60006114b982610ede565b91507fffffffffffffffffffffffffffffffffffffffffffffffffffffffffffffffff82036114eb576114ea61147f565b5b600182019050919050565b7f4e487b7100000000000000000000000000000000000000000000000000000000600052604160045260246000fd5b7f4e487b7100000000000000000000000000000000000000000000000000000000600052602260045260246000fd5b6000600282049050600182168061156c57607f821691505b60208210810361157f5761157e611525565b5b50919050565b60008190508160005260206000209050919050565b60006020601f8301049050919050565b600082821b905092915050565b6000600883026115e77fffffffffffffffffffffffffffffffffffffffffffffffffffffffffffffffff826115aa565b6115f186836115aa565b95508019841693508086168417925050509392505050565b6000819050919050565b600061162e61162961162484610ede565b611609565b610ede565b9050919050565b6000819050919050565b61164883611613565b61165c61165482611635565b8484546115b7565b825550505050565b600090565b611671611664565b61167c81848461163f565b505050565b5b818110156116a057611695600082611669565b600181019050611682565b5050565b601f8211156116e5576116b681611585565b6116bf8461159a565b810160208510156116ce578190505b6116e26116da8561159a565b830182611681565b50505b505050565b600082821c905092915050565b6000611708600019846008026116ea565b1980831691505092915050565b600061172183836116f7565b9150826002028217905092915050565b61173a826111ba565b67ffffffffffffffff811115611753576117526114f6565b5b61175d8254611554565b6117688282856116a4565b600060209050601f83116001811461179b5760008415611789578287015190505b6117938582611715565b8655506117fb565b601f1984166117a986611585565b60005b828110156117d1578489015182556001820191506020850194506020810190506117ac565b868310156117ee57848901516117ea601f8916826116f7565b8355505b6001600288020188555050505b505050505050565b82818337600083830152505050565b600061181e83856111c5565b935061182b838584611803565b61183483611200565b840190509392505050565b60006060820190506118546000830187610ee8565b6118616020830186610ee8565b8181036040830152611874818486611812565b905095945050505050565b7f536f6c6f20656c2070726f706965746172696f207075656465206c6c616d617260008201527f20657374612066756e63696f6e00000000000000000000000000000000000000602082015250565b60006118db602d836111c5565b91506118e68261187f565b604082019050919050565b6000602082019050818103600083015261190a816118ce565b9050919050565b7f494420696e76616c69646f000000000000000000000000000000000000000000600082015250565b6000611947600b836111c5565b915061195282611911565b602082019050919050565b600060208201905081810360008301526119768161193a565b9050919050565b7f456c2070726563696f206465626520736572206d61796f722061206365726f00600082015250565b60006119b3601f836111c5565b91506119be8261197d565b602082019050919050565b600060208201905081810360008301526119e2816119a6565b9050919050565b7f496e646963652064652070726f647563746f20696e76616c69646f0000000000600082015250565b6000611a1f601b836111c5565b9150611a2a826119e9565b602082019050919050565b60006020820190508181036000830152611a4e81611a12565b9050919050565b7f4e487b7100000000000000000000000000000000000000000000000000000000600052603260045260246000fd5b7f456c206e7565766f2065737461646f206e6f2070756564652073657220616e7460008201527f6572696f7220616c2061637475616c0000000000000000000000000000000000602082015250565b6000611ae0602f836111c5565b9150611aeb82611a84565b604082019050919050565b60006020820190508181036000830152611b0f81611ad3565b9050919050565b6000604082019050611b2b6000830185610ee8565b611b3860208301846112b2565b9392505050565b7f446972656363696f6e206e6f2076616c69646100000000000000000000000000600082015250565b6000611b756013836111c5565b9150611b8082611b3f565b602082019050919050565b60006020820190508181036000830152611ba481611b68565b9050919050565b600081905092915050565b50565b6000611bc6600083611bab565b9150611bd182611bb6565b600082019050919050565b6000611be782611bb9565b9150819050919050565b7f5472616e73666572656e6369612066616c6c6964610000000000000000000000600082015250565b6000611c276015836111c5565b9150611c3282611bf1565b602082019050919050565b60006020820190508181036000830152611c5681611c1a565b9050919050565b7f436f6e747261637420686173206e6f2062616c616e636520746f207472616e7360008201527f6665720000000000000000000000000000000000000000000000000000000000602082015250565b6000611cb96023836111c5565b9150611cc482611c5d565b604082019050919050565b60006020820190508181036000830152611ce881611cac565b9050919050565b7f5472616e73666572656e63696120616c206f776e65722066616c6c6964610000600082015250565b6000611d25601e836111c5565b9150611d3082611cef565b602082019050919050565b60006020820190508181036000830152611d5481611d18565b905091905056fea2646970667358221220e65a613e2ea42c6ea3d6c99ed8cf7728976d4b57d7268a28d0f589b15acd1ca064736f6c63430008130033",
  "immutableReferences": {},
  "source": "// SPDX-License-Identifier: MIT\npragma solidity >=0.7.0 <0.9.0;\n\ncontract PaymentContract {\n    address public owner;\n    uint256 public count;\n\n    // 🎯 MEJORA DE SEGURIDAD: Mapeo de precios para validación.\n    // Solo los productos con un precio definido aquí se pueden comprar.\n    mapping(uint256 => uint256) public productPrices;\n\n    enum Status {\n        PENDIENTE,  // 0: Pago recibido, esperando procesamiento\n        EN_PROCESO, // 1: Preparación del pedido\n        ENVIADO,    // 2: Producto enviado al cliente\n        ENTREGADO   // 3: Cliente ha confirmado recepción\n    }\n\n    struct Product {\n        uint256 id;\n        string name;\n        uint256 price;\n        uint256 timestamp;\n        Status orderStatus;\n    }\n\n    // Las direcciones que van comprando en orden\n    mapping(uint256 => address) public getAddress;\n    // Los productos comprados por cada dirección\n    mapping(address => Product[]) public productsByAddress;\n\n    // Eliminamos 'mapping(address => uint256) private balances' por ser redundante y usar gas.\n\n    constructor() {\n        owner = msg.sender;\n        count = 0;\n        // Opcional: Establecer precios iniciales si lo necesitas.\n        // productPrices[99] = 2 ether;\n    }\n\n    // 🎯 NUEVA FUNCIÓN: Solo el owner puede establecer o actualizar precios.\n    function setProductPrice(uint256 idProduct, uint256 priceInWei) public isOwner {\n        require(idProduct > 0, \"ID invalido\");\n        require(priceInWei > 0, \"El precio debe ser mayor a cero\");\n        productPrices[idProduct] = priceInWei;\n    }\n\n    event PaymentReceived(address indexed sender, uint256 amount, uint256 idProduct, string name);\n    event OrderStatusUpdated(address indexed customer, uint256 productIndex, Status newStatus);\n\n\n    // 🎯 CAMBIO CRÍTICO: Valida msg.value contra el precio fijo del producto.\n    // 🎯 MEJORA: 'name' usa 'calldata' para ahorrar gas.\n    function pay(uint256 idProduct, string calldata name) public payable {\n        // 1. CHEQUEO CRÍTICO DE SEGURIDAD: Verifica si el precio está configurado.\n        uint256 requiredPrice = productPrices[idProduct];\n        require(requiredPrice > 0, \"El ID del producto no existe o no tiene precio asignado.\");\n\n        // 2. CHEQUEO CRÍTICO DE SEGURIDAD: Verifica que el monto pagado sea igual al precio requerido.\n        require(msg.value == requiredPrice, \"Monto incorrecto. Pagar el precio exacto.\");\n\n        // El resto de la lógica de pago es segura y se mantiene\n        if (productsByAddress[msg.sender].length == 0) {\n            getAddress[count] = msg.sender;\n            count++;\n        }\n\n        Product memory productIn = Product(\n            idProduct,\n            name,\n            msg.value, // El precio pagado (que ya sabemos que es el correcto)\n            block.timestamp,\n            Status.PENDIENTE\n        );\n        productsByAddress[msg.sender].push(productIn);\n\n        emit PaymentReceived(msg.sender, msg.value, idProduct, name);\n    }\n\n    // 4. NUEVA FUNCIÓN: Permite al owner actualizar el estado de un pedido específico\n    // 🎯 MEJORA: 'name' usa 'calldata' para ahorrar gas.\n    function updateOrderStatus(\n        address customerAddress,\n        uint256 productIndex,\n        Status newStatus\n    ) public isOwner {\n        // Verifica que el índice del producto exista en el array de la dirección\n        require(productIndex < productsByAddress[customerAddress].length, \"Indice de producto invalido\");\n\n        // 🎯 MEJORA DE FLUJO: Asegura que el estado solo pueda avanzar (o ser igual).\n        // Si quieres permitir que un estado retroceda, puedes eliminar este require.\n        require(newStatus >= productsByAddress[customerAddress][productIndex].orderStatus, \"El nuevo estado no puede ser anterior al actual\");\n\n        // Actualiza el estado del pedido específico\n        productsByAddress[customerAddress][productIndex].orderStatus = newStatus;\n\n        emit OrderStatusUpdated(customerAddress, productIndex, newStatus);\n    }\n\n    // Obtener el balance total del contrato\n    function getContractBalance() public isOwner view returns (uint) {\n        return address(this).balance;\n    }\n\n    // 🎯 CAMBIO CRÍTICO DE SEGURIDAD: Uso de 'call' con verificación de éxito para evitar re-entrancy\n    function transferFundsToOwner() public isOwner {\n        address payable ownerWallet = payable(owner);\n        uint contractBalance = address(this).balance;\n        require(contractBalance > 0, \"Contract has no balance to transfer\");\n\n        // Usamos .call con value para enviar Ether.\n        // Este es el método preferido en Solidity moderno para transferir Ether,\n        // ya que permite una gestión de errores más clara.\n        (bool success, ) = ownerWallet.call{value: contractBalance}(\"\");\n        require(success, \"Transferencia al owner fallida\");\n    }\n\n    // Se elimina la función getBalanceEachAddress ya que el mapeo 'balances' fue eliminado.\n    // El balance total de gasto de un cliente se puede calcular sumando los precios\n    // de su array 'productsByAddress' en la aplicación de React.\n\n    // Transferir del contrato a otra billetera\n    function transferTo(uint amount, address to) public isOwner {\n        require(address(this).balance >= amount);\n        require(to != address(0), \"Direccion no valida\");\n        // Usamos .call con value en lugar de .transfer() para consistencia y seguridad moderna.\n        (bool success, ) = payable(to).call{value: amount}(\"\");\n        require(success, \"Transferencia fallida\");\n    }\n\n    // El propietario\n    modifier isOwner() {\n        require(msg.sender == owner, \"Solo el propietario puede llamar esta funcion\");\n        _;\n    }\n}\n",
  "sourcePath": "/home/ap/Desktop/projectsFamily/pasarela-de-pago-ethereum/pasarela_backend_Ethereum/contracts/PaymentContract.sol",
  "compiler": {
    "name": "solc",
    "version": "0.8.19+commit.7dd6d404.Emscripten.clang"
  },
  "schemaVersion": "3.4.16",
  "updatedAt": "2025-10-24T05:10:04.072Z",
  "networkType": "ethereum",
  "devdoc": {
    "kind": "dev",
    "methods": {},
    "version": 1
  },
  "userdoc": {
    "kind": "user",
    "methods": {},
    "version": 1
  }
}