{
  "contractName": "PaymentContract",
  "abi": [
    {
      "inputs": [],
      "stateMutability": "nonpayable",
      "type": "constructor"
    },
    {
      "anonymous": false,
      "inputs": [
        {
          "indexed": true,
          "internalType": "address",
          "name": "sender",
          "type": "address"
        },
        {
          "indexed": false,
          "internalType": "uint256",
          "name": "amount",
          "type": "uint256"
        },
        {
          "indexed": false,
          "internalType": "uint256",
          "name": "idProduct",
          "type": "uint256"
        },
        {
          "indexed": false,
          "internalType": "string",
          "name": "name",
          "type": "string"
        }
      ],
      "name": "PaymentReceived",
      "type": "event"
    },
    {
      "inputs": [],
      "name": "count",
      "outputs": [
        {
          "internalType": "uint256",
          "name": "",
          "type": "uint256"
        }
      ],
      "stateMutability": "view",
      "type": "function",
      "constant": true
    },
    {
      "inputs": [
        {
          "internalType": "uint256",
          "name": "",
          "type": "uint256"
        }
      ],
      "name": "getAddress",
      "outputs": [
        {
          "internalType": "address",
          "name": "",
          "type": "address"
        }
      ],
      "stateMutability": "view",
      "type": "function",
      "constant": true
    },
    {
      "inputs": [],
      "name": "owner",
      "outputs": [
        {
          "internalType": "address",
          "name": "",
          "type": "address"
        }
      ],
      "stateMutability": "view",
      "type": "function",
      "constant": true
    },
    {
      "inputs": [
        {
          "internalType": "address",
          "name": "",
          "type": "address"
        },
        {
          "internalType": "uint256",
          "name": "",
          "type": "uint256"
        }
      ],
      "name": "productsByAddress",
      "outputs": [
        {
          "internalType": "uint256",
          "name": "id",
          "type": "uint256"
        },
        {
          "internalType": "string",
          "name": "name",
          "type": "string"
        },
        {
          "internalType": "uint256",
          "name": "price",
          "type": "uint256"
        }
      ],
      "stateMutability": "view",
      "type": "function",
      "constant": true
    },
    {
      "inputs": [
        {
          "internalType": "uint256",
          "name": "idProduct",
          "type": "uint256"
        },
        {
          "internalType": "string",
          "name": "name",
          "type": "string"
        }
      ],
      "name": "pay",
      "outputs": [],
      "stateMutability": "payable",
      "type": "function",
      "payable": true
    },
    {
      "inputs": [],
      "name": "getContractBalance",
      "outputs": [
        {
          "internalType": "uint256",
          "name": "",
          "type": "uint256"
        }
      ],
      "stateMutability": "view",
      "type": "function",
      "constant": true
    },
    {
      "inputs": [],
      "name": "transferFundsToOwner",
      "outputs": [],
      "stateMutability": "nonpayable",
      "type": "function"
    },
    {
      "inputs": [
        {
          "internalType": "address",
          "name": "account",
          "type": "address"
        }
      ],
      "name": "getBalanceEachAddress",
      "outputs": [
        {
          "internalType": "uint256",
          "name": "",
          "type": "uint256"
        }
      ],
      "stateMutability": "view",
      "type": "function",
      "constant": true
    },
    {
      "inputs": [
        {
          "internalType": "uint256",
          "name": "amount",
          "type": "uint256"
        },
        {
          "internalType": "address",
          "name": "to",
          "type": "address"
        }
      ],
      "name": "transferTo",
      "outputs": [],
      "stateMutability": "nonpayable",
      "type": "function"
    }
  ],
  "bytecode": "0x608060405234801561001057600080fd5b50336000806101000a81548173ffffffffffffffffffffffffffffffffffffffff021916908373ffffffffffffffffffffffffffffffffffffffff1602179055506000600181905550611240806100686000396000f3fe6080604052600436106100865760003560e01c80638da5cb5b116100595780638da5cb5b1461013a5780638ffce9f014610165578063b93f9b0a146101a4578063d4822fbf146101e1578063ec8af07d1461020a57610086565b806306661abd1461008b578063154fbbc4146100b65780636f9fb98a146100d257806373e4f4ef146100fd575b600080fd5b34801561009757600080fd5b506100a0610221565b6040516100ad91906108a3565b60405180910390f35b6100d060048036038101906100cb9190610a44565b610227565b005b3480156100de57600080fd5b506100e761044a565b6040516100f491906108a3565b60405180910390f35b34801561010957600080fd5b50610124600480360381019061011f9190610afe565b6104c8565b60405161013191906108a3565b60405180910390f35b34801561014657600080fd5b5061014f61056a565b60405161015c9190610b3a565b60405180910390f35b34801561017157600080fd5b5061018c60048036038101906101879190610b55565b61058e565b60405161019b93929190610c14565b60405180910390f35b3480156101b057600080fd5b506101cb60048036038101906101c69190610c52565b61065d565b6040516101d89190610b3a565b60405180910390f35b3480156101ed57600080fd5b5061020860048036038101906102039190610c7f565b610690565b005b34801561021657600080fd5b5061021f610779565b005b60015481565b6000341161026a576040517f08c379a000000000000000000000000000000000000000000000000000000000815260040161026190610d31565b60405180910390fd5b670de0b6b3a76400003461027e9190610daf565b600360003373ffffffffffffffffffffffffffffffffffffffff1673ffffffffffffffffffffffffffffffffffffffff16815260200190815260200160002060008282546102cc9190610de0565b925050819055503360026000600154815260200190815260200160002060006101000a81548173ffffffffffffffffffffffffffffffffffffffff021916908373ffffffffffffffffffffffffffffffffffffffff1602179055506001600081548092919061033a90610e14565b919050555060006040518060600160405280848152602001838152602001348152509050600460003373ffffffffffffffffffffffffffffffffffffffff1673ffffffffffffffffffffffffffffffffffffffff1681526020019081526020016000208190806001815401808255809150506001900390600052602060002090600302016000909190919091506000820151816000015560208201518160010190816103e69190611068565b506040820151816002015550503373ffffffffffffffffffffffffffffffffffffffff167f237b94339b1dc667f5a951cf2ee33f00228f658a6ab811cc6afa6caaa4b80cfa34858560405161043d9392919061113a565b60405180910390a2505050565b60008060009054906101000a900473ffffffffffffffffffffffffffffffffffffffff1673ffffffffffffffffffffffffffffffffffffffff163373ffffffffffffffffffffffffffffffffffffffff16146104a557600080fd5b60003090508073ffffffffffffffffffffffffffffffffffffffff163191505090565b60008060009054906101000a900473ffffffffffffffffffffffffffffffffffffffff1673ffffffffffffffffffffffffffffffffffffffff163373ffffffffffffffffffffffffffffffffffffffff161461052357600080fd5b600360008373ffffffffffffffffffffffffffffffffffffffff1673ffffffffffffffffffffffffffffffffffffffff168152602001908152602001600020549050919050565b60008054906101000a900473ffffffffffffffffffffffffffffffffffffffff1681565b600460205281600052604060002081815481106105aa57600080fd5b9060005260206000209060030201600091509150508060000154908060010180546105d490610e8b565b80601f016020809104026020016040519081016040528092919081815260200182805461060090610e8b565b801561064d5780601f106106225761010080835404028352916020019161064d565b820191906000526020600020905b81548152906001019060200180831161063057829003601f168201915b5050505050908060020154905083565b60026020528060005260406000206000915054906101000a900473ffffffffffffffffffffffffffffffffffffffff1681565b60008054906101000a900473ffffffffffffffffffffffffffffffffffffffff1673ffffffffffffffffffffffffffffffffffffffff163373ffffffffffffffffffffffffffffffffffffffff16146106e857600080fd5b814710156106f557600080fd5b600073ffffffffffffffffffffffffffffffffffffffff168173ffffffffffffffffffffffffffffffffffffffff160361072e57600080fd5b8073ffffffffffffffffffffffffffffffffffffffff166108fc839081150290604051600060405180830381858888f19350505050158015610774573d6000803e3d6000fd5b505050565b60008054906101000a900473ffffffffffffffffffffffffffffffffffffffff1673ffffffffffffffffffffffffffffffffffffffff163373ffffffffffffffffffffffffffffffffffffffff16146107d157600080fd5b60008060009054906101000a900473ffffffffffffffffffffffffffffffffffffffff16905060004790506000811161083f576040517f08c379a0000000000000000000000000000000000000000000000000000000008152600401610836906111ea565b60405180910390fd5b8173ffffffffffffffffffffffffffffffffffffffff166108fc829081150290604051600060405180830381858888f19350505050158015610885573d6000803e3d6000fd5b505050565b6000819050919050565b61089d8161088a565b82525050565b60006020820190506108b86000830184610894565b92915050565b6000604051905090565b600080fd5b600080fd5b6108db8161088a565b81146108e657600080fd5b50565b6000813590506108f8816108d2565b92915050565b600080fd5b600080fd5b6000601f19601f8301169050919050565b7f4e487b7100000000000000000000000000000000000000000000000000000000600052604160045260246000fd5b61095182610908565b810181811067ffffffffffffffff821117156109705761096f610919565b5b80604052505050565b60006109836108be565b905061098f8282610948565b919050565b600067ffffffffffffffff8211156109af576109ae610919565b5b6109b882610908565b9050602081019050919050565b82818337600083830152505050565b60006109e76109e284610994565b610979565b905082815260208101848484011115610a0357610a02610903565b5b610a0e8482856109c5565b509392505050565b600082601f830112610a2b57610a2a6108fe565b5b8135610a3b8482602086016109d4565b91505092915050565b60008060408385031215610a5b57610a5a6108c8565b5b6000610a69858286016108e9565b925050602083013567ffffffffffffffff811115610a8a57610a896108cd565b5b610a9685828601610a16565b9150509250929050565b600073ffffffffffffffffffffffffffffffffffffffff82169050919050565b6000610acb82610aa0565b9050919050565b610adb81610ac0565b8114610ae657600080fd5b50565b600081359050610af881610ad2565b92915050565b600060208284031215610b1457610b136108c8565b5b6000610b2284828501610ae9565b91505092915050565b610b3481610ac0565b82525050565b6000602082019050610b4f6000830184610b2b565b92915050565b60008060408385031215610b6c57610b6b6108c8565b5b6000610b7a85828601610ae9565b9250506020610b8b858286016108e9565b9150509250929050565b600081519050919050565b600082825260208201905092915050565b60005b83811015610bcf578082015181840152602081019050610bb4565b60008484015250505050565b6000610be682610b95565b610bf08185610ba0565b9350610c00818560208601610bb1565b610c0981610908565b840191505092915050565b6000606082019050610c296000830186610894565b8181036020830152610c3b8185610bdb565b9050610c4a6040830184610894565b949350505050565b600060208284031215610c6857610c676108c8565b5b6000610c76848285016108e9565b91505092915050565b60008060408385031215610c9657610c956108c8565b5b6000610ca4858286016108e9565b9250506020610cb585828601610ae9565b9150509250929050565b7f5061796d656e7420616d6f756e74206d7573742062652067726561746572207460008201527f68616e207a65726f000000000000000000000000000000000000000000000000602082015250565b6000610d1b602883610ba0565b9150610d2682610cbf565b604082019050919050565b60006020820190508181036000830152610d4a81610d0e565b9050919050565b7f4e487b7100000000000000000000000000000000000000000000000000000000600052601260045260246000fd5b7f4e487b7100000000000000000000000000000000000000000000000000000000600052601160045260246000fd5b6000610dba8261088a565b9150610dc58361088a565b925082610dd557610dd4610d51565b5b828204905092915050565b6000610deb8261088a565b9150610df68361088a565b9250828201905080821115610e0e57610e0d610d80565b5b92915050565b6000610e1f8261088a565b91507fffffffffffffffffffffffffffffffffffffffffffffffffffffffffffffffff8203610e5157610e50610d80565b5b600182019050919050565b7f4e487b7100000000000000000000000000000000000000000000000000000000600052602260045260246000fd5b60006002820490506001821680610ea357607f821691505b602082108103610eb657610eb5610e5c565b5b50919050565b60008190508160005260206000209050919050565b60006020601f8301049050919050565b600082821b905092915050565b600060088302610f1e7fffffffffffffffffffffffffffffffffffffffffffffffffffffffffffffffff82610ee1565b610f288683610ee1565b95508019841693508086168417925050509392505050565b6000819050919050565b6000610f65610f60610f5b8461088a565b610f40565b61088a565b9050919050565b6000819050919050565b610f7f83610f4a565b610f93610f8b82610f6c565b848454610eee565b825550505050565b600090565b610fa8610f9b565b610fb3818484610f76565b505050565b5b81811015610fd757610fcc600082610fa0565b600181019050610fb9565b5050565b601f82111561101c57610fed81610ebc565b610ff684610ed1565b81016020851015611005578190505b61101961101185610ed1565b830182610fb8565b50505b505050565b600082821c905092915050565b600061103f60001984600802611021565b1980831691505092915050565b6000611058838361102e565b9150826002028217905092915050565b61107182610b95565b67ffffffffffffffff81111561108a57611089610919565b5b6110948254610e8b565b61109f828285610fdb565b600060209050601f8311600181146110d257600084156110c0578287015190505b6110ca858261104c565b865550611132565b601f1984166110e086610ebc565b60005b82811015611108578489015182556001820191506020850194506020810190506110e3565b868310156111255784890151611121601f89168261102e565b8355505b6001600288020188555050505b505050505050565b600060608201905061114f6000830186610894565b61115c6020830185610894565b818103604083015261116e8184610bdb565b9050949350505050565b7f436f6e747261637420686173206e6f2062616c616e636520746f207472616e7360008201527f6665720000000000000000000000000000000000000000000000000000000000602082015250565b60006111d4602383610ba0565b91506111df82611178565b604082019050919050565b60006020820190508181036000830152611203816111c7565b905091905056fea26469706673582212201a8b22a4d11c23fd6cec76b6dd995948bf9bba1c05f47a026b484a9c5f3accaf64736f6c63430008130033",
  "immutableReferences": {},
  "source": "// SPDX-License-Identifier: MIT\npragma solidity >=0.7.0 <0.9.0;\n\ncontract PaymentContract {\n    address public owner;\n    uint256 public count;\n\n    struct Product {\n      uint256 id;\n      string name;\n      uint256 price;\n    }\n\n    // Las direcciones que van comprando en orden\n    mapping(uint256 => address) public getAddress;\n    // el balance que cada dir gasta pagando en el contrato, se va sumando por compra\n    mapping(address => uint256) private balances;\n    // Los productos comprados por cada direccin\n    mapping(address => Product[]) public productsByAddress;\n    //Un arreglo de productos con la estructura de Product\n\n    constructor() {\n      owner = msg.sender;\n      count = 0;\n    }\n\n    event PaymentReceived(address indexed sender,uint256 amount,uint256 idProduct,string name);\n    // pagar al contrato el valor\n    function pay(uint256 idProduct, string memory name) public payable {\n        require(msg.value > 0, \"Payment amount must be greater than zero\");\n        balances[msg.sender] += msg.value / 1e18;\n        getAddress[count] = msg.sender;\n        count++;\n\n        Product memory productIn = Product(idProduct, name, msg.value);\n        productsByAddress[msg.sender].push(productIn);\n\n        emit PaymentReceived(msg.sender, msg.value, idProduct, name);\n        }\n    // obtener el balance total del contrato\n    function getContractBalance() public isOwner view returns (uint) {\n        address ownerContractAddress = address(this);\n        return ownerContractAddress.balance;\n    }\n    // transferir del contrato todo a la billetera del owner\n    function transferFundsToOwner() public isOwner {\n        address payable ownerWallet = payable(owner);\n        uint contractBalance = address(this).balance;\n        require(contractBalance > 0, \"Contract has no balance to transfer\");\n        ownerWallet.transfer(contractBalance);\n    }\n    // el balance que ha gastado cada billetera\n    function getBalanceEachAddress(address account) public view isOwner returns (uint256) {\n        return balances[account];\n    }\n    // transferir del contrato a otra billetera\n    function transferTo(uint amount, address to) public isOwner {\n        require(address(this).balance >= amount);\n        require(to != address(0));\n        payable(to).transfer(amount);\n    }\n    //el propietario\n    modifier isOwner() {\n      require(msg.sender == owner);\n      _;\n    }\n}\n",
  "sourcePath": "/home/oem/Desktop/AP./pasarela_pagos_ethereum/pasarela_backend_Ethereum/contracts/PaymentContract.sol",
  "compiler": {
    "name": "solc",
    "version": "0.8.19+commit.7dd6d404.Emscripten.clang"
  },
  "schemaVersion": "3.4.13",
  "updatedAt": "2023-05-19T14:48:34.410Z",
  "networkType": "ethereum",
  "devdoc": {
    "kind": "dev",
    "methods": {},
    "version": 1
  },
  "userdoc": {
    "kind": "user",
    "methods": {},
    "version": 1
  }
}